{
  "contractName": "Faucet",
  "abi": [
    {
      "inputs": [],
      "name": "numOfFunders",
      "outputs": [
        {
          "internalType": "uint256",
          "name": "",
          "type": "uint256"
        }
      ],
      "stateMutability": "view",
      "type": "function",
      "constant": true
    },
    {
      "inputs": [],
      "name": "owner",
      "outputs": [
        {
          "internalType": "address",
          "name": "",
          "type": "address"
        }
      ],
      "stateMutability": "view",
      "type": "function",
      "constant": true
    },
    {
      "inputs": [],
      "name": "testNum",
      "outputs": [
        {
          "internalType": "uint256",
          "name": "",
          "type": "uint256"
        }
      ],
      "stateMutability": "view",
      "type": "function",
      "constant": true
    },
    {
      "stateMutability": "payable",
      "type": "receive",
      "payable": true
    },
    {
      "inputs": [],
      "name": "emitLog",
      "outputs": [
        {
          "internalType": "bytes32",
          "name": "",
          "type": "bytes32"
        }
      ],
      "stateMutability": "pure",
      "type": "function",
      "constant": true
    },
    {
      "inputs": [],
      "name": "addFunds",
      "outputs": [],
      "stateMutability": "payable",
      "type": "function",
      "payable": true
    },
    {
      "inputs": [
        {
          "internalType": "uint256",
          "name": "amount",
          "type": "uint256"
        }
      ],
      "name": "withdraw",
      "outputs": [],
      "stateMutability": "nonpayable",
      "type": "function"
    },
    {
      "inputs": [],
      "name": "getAllFunders",
      "outputs": [
        {
          "internalType": "address[]",
          "name": "",
          "type": "address[]"
        }
      ],
      "stateMutability": "view",
      "type": "function",
      "constant": true
    },
    {
      "inputs": [
        {
          "internalType": "uint8",
          "name": "index",
          "type": "uint8"
        }
      ],
      "name": "getFunderAtIndex",
      "outputs": [
        {
          "internalType": "address",
          "name": "",
          "type": "address"
        }
      ],
      "stateMutability": "view",
      "type": "function",
      "constant": true
    }
  ],
  "bytecode": "0x608060405234801561001057600080fd5b50336000806101000a81548173ffffffffffffffffffffffffffffffffffffffff021916908373ffffffffffffffffffffffffffffffffffffffff1602179055506103e860018190555061092f806100696000396000f3fe60806040526004361061007f5760003560e01c8063a26759cb1161004e578063a26759cb14610147578063ae28f1ed14610151578063af7f2c9b1461017c578063f42c13bf146101a757610086565b80630a93cf331461008b5780632e1a7d4d146100c85780636fbbb55d146100f15780638da5cb5b1461011c57610086565b3661008657005b600080fd5b34801561009757600080fd5b506100b260048036038101906100ad9190610557565b6101d2565b6040516100bf91906105c5565b60405180910390f35b3480156100d457600080fd5b506100ef60048036038101906100ea9190610616565b610212565b005b3480156100fd57600080fd5b506101066102a9565b6040516101139190610701565b60405180910390f35b34801561012857600080fd5b506101316103a3565b60405161013e91906105c5565b60405180910390f35b61014f6103c7565b005b34801561015d57600080fd5b506101666104e5565b6040516101739190610732565b60405180910390f35b34801561018857600080fd5b506101916104eb565b60405161019e9190610732565b60405180910390f35b3480156101b357600080fd5b506101bc6104f1565b6040516101c99190610766565b60405180910390f35b6000600460008360ff16815260200190815260200160002060009054906101000a900473ffffffffffffffffffffffffffffffffffffffff169050919050565b8067016345785d8a000081111561025e576040517f08c379a000000000000000000000000000000000000000000000000000000000815260040161025590610804565b60405180910390fd5b3373ffffffffffffffffffffffffffffffffffffffff166108fc839081150290604051600060405180830381858888f193505050501580156102a4573d6000803e3d6000fd5b505050565b6060600060025467ffffffffffffffff8111156102c9576102c8610824565b5b6040519080825280602002602001820160405280156102f75781602001602082028036833780820191505090505b50905060005b60025481101561039b576004600082815260200190815260200160002060009054906101000a900473ffffffffffffffffffffffffffffffffffffffff1682828151811061034e5761034d610853565b5b602002602001019073ffffffffffffffffffffffffffffffffffffffff16908173ffffffffffffffffffffffffffffffffffffffff16815250508080610393906108b1565b9150506102fd565b508091505090565b60008054906101000a900473ffffffffffffffffffffffffffffffffffffffff1681565b6000339050600360008273ffffffffffffffffffffffffffffffffffffffff1673ffffffffffffffffffffffffffffffffffffffff16815260200190815260200160002060009054906101000a900460ff166104e2576001600360008373ffffffffffffffffffffffffffffffffffffffff1673ffffffffffffffffffffffffffffffffffffffff16815260200190815260200160002060006101000a81548160ff0219169083151502179055508060046000600254815260200190815260200160002060006101000a81548173ffffffffffffffffffffffffffffffffffffffff021916908373ffffffffffffffffffffffffffffffffffffffff160217905550600260008154809291906104dc906108b1565b91905055505b50565b60015481565b60025481565b60007f48656c6c6f20576f726c64000000000000000000000000000000000000000000905090565b600080fd5b600060ff82169050919050565b6105348161051e565b811461053f57600080fd5b50565b6000813590506105518161052b565b92915050565b60006020828403121561056d5761056c610519565b5b600061057b84828501610542565b91505092915050565b600073ffffffffffffffffffffffffffffffffffffffff82169050919050565b60006105af82610584565b9050919050565b6105bf816105a4565b82525050565b60006020820190506105da60008301846105b6565b92915050565b6000819050919050565b6105f3816105e0565b81146105fe57600080fd5b50565b600081359050610610816105ea565b92915050565b60006020828403121561062c5761062b610519565b5b600061063a84828501610601565b91505092915050565b600081519050919050565b600082825260208201905092915050565b6000819050602082019050919050565b610678816105a4565b82525050565b600061068a838361066f565b60208301905092915050565b6000602082019050919050565b60006106ae82610643565b6106b8818561064e565b93506106c38361065f565b8060005b838110156106f45781516106db888261067e565b97506106e683610696565b9250506001810190506106c7565b5085935050505092915050565b6000602082019050818103600083015261071b81846106a3565b905092915050565b61072c816105e0565b82525050565b60006020820190506107476000830184610723565b92915050565b6000819050919050565b6107608161074d565b82525050565b600060208201905061077b6000830184610757565b92915050565b600082825260208201905092915050565b7f4f6e6c79207769746864726177206c6573736572207468616e20302e3120657460008201527f6865722100000000000000000000000000000000000000000000000000000000602082015250565b60006107ee602483610781565b91506107f982610792565b604082019050919050565b6000602082019050818103600083015261081d816107e1565b9050919050565b7f4e487b7100000000000000000000000000000000000000000000000000000000600052604160045260246000fd5b7f4e487b7100000000000000000000000000000000000000000000000000000000600052603260045260246000fd5b7f4e487b7100000000000000000000000000000000000000000000000000000000600052601160045260246000fd5b60006108bc826105e0565b91507fffffffffffffffffffffffffffffffffffffffffffffffffffffffffffffffff82036108ee576108ed610882565b5b60018201905091905056fea264697066735822122004e553461845bb3bc178f9f92e0959243c2c82197fca209dd4b5f1739af43be764736f6c634300080d0033",
  "immutableReferences": {},
  "source": "// SPDX-License-Identifier: MIT\r\npragma solidity >=0.4.22 <0.9.0;\r\n\r\nimport \"./Owned.sol\";\r\nimport \"./Logger.sol\";\r\nimport \"./IFaucet.sol\";\r\n\r\ncontract Faucet is Owned, Logger, IFaucet {\r\n\r\n    uint public numOfFunders;\r\n\r\n    mapping(address => bool) private funders;\r\n    mapping(uint => address) private lutFunders;\r\n\r\n    modifier limitWithdraw(uint amount) {\r\n        require(\r\n            amount <= 100000000000000000,\r\n            \"Only withdraw lesser than 0.1 ether!\"\r\n        );\r\n        _;\r\n    }\r\n\r\n    receive() external payable {}\r\n\r\n    function emitLog() public override pure returns(bytes32) {\r\n        return \"Hello World\";\r\n    }\r\n\r\n    function addFunds() external override payable {\r\n        address funder = msg.sender;\r\n        if (!funders[funder]) {\r\n            funders[funder] = true;\r\n            lutFunders[numOfFunders] = funder;\r\n            numOfFunders++;\r\n        }\r\n    }\r\n\r\n    function withdraw(uint amount) external override limitWithdraw(amount) {\r\n        payable(msg.sender).transfer(amount);\r\n    }\r\n\r\n    function getAllFunders() external view returns (address[] memory) {\r\n        address[] memory _funders = new address[](numOfFunders);\r\n        for (uint i = 0; i < numOfFunders; i++) {\r\n            _funders[i] = lutFunders[i];\r\n        }\r\n        return _funders;\r\n    }\r\n\r\n    function getFunderAtIndex(uint8 index) external view returns(address) {\r\n        return lutFunders[index];\r\n    }\r\n\r\n\r\n    // const instance = await Faucet.deployed()\r\n    // instance.addFunds({from: accounts[0], value: \"2000000000000000000\"})\r\n    // instance.withdraw(\"500000000000000000\", {from: accounts[1]})\r\n    // instance.getFunderAtIndex(0)\r\n    // instance.getAllFunders()\r\n}",
  "sourcePath": "C:\\Users\\prave\\Desktop\\Tech Projects\\Web3\\udemy1\\faucet\\contracts\\FaucetContract.sol",
  "compiler": {
    "name": "solc",
    "version": "0.8.13+commit.abaa5c0e.Emscripten.clang"
  },
  "schemaVersion": "3.4.7",
  "updatedAt": "2022-05-25T07:12:16.523Z",
  "networkType": "ethereum",
  "devdoc": {
    "kind": "dev",
    "methods": {},
    "version": 1
  },
  "userdoc": {
    "kind": "user",
    "methods": {},
    "version": 1
  }
}